:020000040800F2
:10000000200400209D0100088D09000889090008CE
:100010008B090008A9020008910A000800000000EE
:10002000000000000000000000000000B10900080E
:10003000AB02000800000000AF090008B309000887
:10004000B7010008B7010008B7010008B7010008B0
:10005000B7010008B7010008B7010008B7010008A0
:10006000B7010008B7010008B7010008B701000890
:10007000B7010008B7010008B7010008B701000880
:10008000B7010008B7010008B7010008B701000870
:10009000B7010008B7010008B7010008B701000860
:1000A000B7010008B7010008B7010008B701000850
:1000B000B7010008B7010008B7010008B701000840
:1000C000B7010008B7010008B7010008B701000830
:1000D000B7010008B7010008B7010008B701000820
:1000E000B7010008B7010008B7010008B701000810
:1000F000B7010008B7010008B7010008B701000800
:10010000B7010008B7010008B7010008B7010008EF
:10011000B7010008B7010008B7010008B7010008DF
:10012000B7010008B7010008B7010008B7010008CF
:10013000B7010008B7010008B7010008B7010008BF
:10014000B7010008B7010008B7010008B7010008AF
:10015000B7010008B7010008B7010008B70100089F
:10016000B7010008B7010008B7010008B70100088F
:10017000B7010008B7010008B7010008000000003F
:10018000B7010008B7010008DFF80CD000F07AF8DA
:1001900000480047B10A00082004002006488047B4
:1001A00006480047FEE7FEE7FEE7FEE7FEE7FEE75C
:1001B000FEE7FEE7FEE7FEE73D0A000889010008CA
:1001C0002DE9F05F0546002092469B46884606468C
:1001D000814640241BE0284641464746224600F01F
:1001E00041F853465A46C01A914110D31146184659
:1001F000224600F028F82D1A67EB01084F462246E8
:100200000120002100F01FF817EB00094E41201ECD
:10021000A4F10104DFDC484631462A464346BDE8E6
:10022000F09FD2B201E000F8012B491EFBD27047CB
:100230000022F6E710B513460A4604461946FFF7B2
:10024000F0FF204610BD202A04DB203A00FA02F11C
:10025000002070479140C2F1200320FA03F31943B4
:1002600090407047202A04DB203A21FA02F0002156
:10027000704721FA02F3D040C2F1200291400843B6
:1002800019467047064C074D06E0E06840F0010350
:1002900094E8070098471034AC42F6D3FFF778FF94
:1002A0000C0B00082C0B0008FEE7704710B5054941
:1002B000054800F0F3FA04480068016821F00401E1
:1002C000016010BD0000002014000020014880687B
:1002D0007047000004000020024881680278114441
:1002E00081607047040000200B4810B5016841F49C
:1002F00000710160016841F480610160016841F4AE
:1003000080710160032000F061F8002000F006F821
:1003100000F024F8002010BD003C024070B50D4DE7
:1003200004464FF47A712878B1FBF0F00A49096865
:10033000B1FBF0F000F014FB48B9102C07D20022FA
:100340002146501E00F022F800206C6070BD012094
:1003500070BD000004000020100000200A4808B50D
:10036000016841F480410160006800F48040009021
:100370000548001F016841F080510160006800F0ED
:100380008050009008BD000044380240F0B40E4B8D
:100390001B680C46C3F30223C3F10705042D00D9E3
:1003A0000425191D072901D2002300E0DB1E0126C8
:1003B00006FA05F1491E214099409E40761E1640DE
:1003C0003143F0BC00F0E3BA0CED00E0064900F068
:1003D000070208684FF6FF03184040EA0220034A6C
:1003E00010430860704700000CED00E00000FA05C3
:1003F0002DE9F0470E46050065D0DFF81481D8F8E6
:100400000000F7B200F00F00B04207D288F8007089
:10041000D8F8000000F00F00B04254D128683D4CDD
:10042000810712D5400703D5206840F4E0502060D2
:100430002878000703D5206840F4604020602068D9
:10044000A96820F0F000084320602878C0072DD06C
:10045000304968680839012812D0022813D00328CF
:1004600011D00968890700292DDA216821F00301DC
:1004700001432160FFF72AFF814641F2883A0EE0EE
:1004800009688903EFE709688901ECE7FFF71EFFB8
:10049000A0EB0901514502D90320BDE8F08720688F
:1004A000696800F00C00B0EB810FEFD1D8F80010B4
:1004B000404601F00F01B14207D90770006800F013
:1004C0000F00B04201D00120E7E72878400705D5AA
:1004D0002068E96820F4E05008432060287800078D
:1004E00006D52068296920F4604040EAC1002060F8
:1004F00000F016F82168084AC1F30311515CC840A6
:10050000064908600020FFF709FF0020C5E700004A
:10051000003C024008380240FC0A0008100000209D
:10052000154810B5006810F00C02144813D04110A3
:10053000042A0FD0082A0ED10F4C241F22682368EA
:1005400002F03F025B0207D52068C0F38810A0FBD1
:10055000010106E0084610BD2168C1F38811A1FB26
:1005600000010023FFF72CFE2168C1F30141491C63
:100570004900B0FBF1F010BD083802400024F4003F
:100580002DE9F84F050076D02878DFF8F8B2BE4C98
:10059000C00749D0DBF800105846C1F3810101299A
:1005A00008D00068C0F3810002280AD1201D00682D
:1005B000400206D52068800336D568680028E2D05E
:1005C00032E06868B0F5803F10D0B0F5A02F206809
:1005D00010D020F480302060206820F4802020603B
:1005E0006868A0B1FFF772FE06460CE0206840F490
:1005F0008030F4E740F480202060F7E7FFF766FEE4
:10060000801B642873D820688003F7D50CE0FFF7BF
:100610005DFE064605E000BFFFF758FE801B64281C
:10062000F0D820688003F7D42878DFF8608280074C
:100630004FF000093ED5DBF80010584611F00C0FC2
:1006400009D00068C0F3810002280BD18D48001F3B
:100650000068400206D42068800715D5E8680128A4
:1006600009D111E0E868B8B10120C8F80000FFF72F
:100670002DFE064605E002E1FFF728FE801B02285A
:10068000C0D820688007F7D52068296920F0F800D5
:1006900040EAC10020600DE0C8F80090FFF716FEA8
:1006A000064604E0FFF712FE801B02281FD82068D0
:1006B0008007F7D42878000722D5724E74486969FC
:1006C0006C3671B101210160FFF700FE074604E0BE
:1006D000FFF7FCFDC01B022809D830688007F7D55A
:1006E0000EE0C0F80090FFF7F1FD074605E083E05B
:1006F000FFF7ECFDC01B02287ED830688007F7D4D6
:100700002878400768D5DFF87CA100270AF1380A6D
:10071000DAF80000C0000BD4DAF8001041F0805184
:10072000CAF80010DAF80000012700F080500090AD
:10073000584E3068C00510D4306840F48070306086
:10074000FFF7C4FD009005E0FFF7C0FD0099401AD7
:10075000022851D83068C005F6D54A4EA8686836D8
:1007600001280FD00528306810D020F0010030603B
:10077000306820F004003060A868B8B1FFF7A6FD2B
:1007800000900FE0306840F00100F4E740F0040012
:100790003060F7E7FFF79AFD0099411A41F288307F
:1007A000814264D830688007F4D50EE0FFF78EFDF3
:1007B000009007E0FFF78AFD0099411A41F2883066
:1007C000814254D830688007F4D42FB1DAF8001091
:1007D00021F08051CAF80010A869C0B3DBF80010FE
:1007E000C1F3810102294AD00228484607D0C8F83F
:1007F0006000FFF76BFD00E039E005463AE0474650
:10080000C8F86000FFF762FD064604E0FFF75EFDF2
:10081000801B02282BD820688001F7D4D5E9070176
:100820000843A96A1C4A490802EB01416A6A41EA85
:100830008211084395F82C1040EA01611148001F0D
:10084000016001203866FFF741FD054605E014E030
:10085000FFF73CFD401B022809D820688001F7D52E
:100860000BE000BFFFF732FD401B022802D9032036
:10087000BDE8F88F20688001F4D40020F8E701205B
:10088000F6E7000008380240003802400000474206
:10089000800E4742007000400000FFFF2DE9F04746
:1008A000044600790026894601280CD001272771CB
:1008B0006079B046012808D05FF0010684F8048012
:1008C0003046BDE8F0870220FBE702206071FFF7A9
:1008D000FDFC05460BE000BFFFF7F8FC401B0228BB
:1008E00005D90420607184F804800320E9E72068BA
:1008F0004068C043C007EFD120688068A060C9F895
:1009000000006771DAE710B5040002D0607910B119
:1009100006E0012010BD00202071204600F00CF8F8
:10092000022060712068016841F00401016001202B
:100930006071002010BD000008B5006806498842BB
:1009400008D10648016841F040010160006800F0EC
:100950004000009008BD00000008065034380240F6
:1009600010B5401EB0F1807F01D3012010BD4FF0C3
:10097000E02460610F21601700F009F80020A061F9
:1009800007202061002010BDFEE7FEE77047090741
:10099000090E002806DA00F00F0000F1E02080F8D0
:1009A000141D704700F1E02080F800147047704774
:1009B0007047FFF791BC000030B593B03021684616
:1009C000FFF736FC14210CA8FFF732FC194800256C
:1009D000016841F080510160006800F08050119082
:1009E0001548016841F4804101600068022400F468
:1009F00080401190012003901020049000940694F0
:100A00000820CDE90750A820CDE9090407200B9064
:100A10006846FFF7B5FD0CA90F2081E831004FF4BF
:100A2000A0500F90E002109005210CA8FFF7E0FC09
:100A300013B030BD403802400070004010480168DB
:100A400041F4700101600F48016841F0010101604B
:100A50000C4A00210832116002680B4B1A400260F8
:100A6000031D0A4A1A60026822F4802202600548C7
:100A70000C30016002495806803908607047000058
:100A800088ED00E000380240FFFFF6FE1030002441
:100A9000FEE702E008C8121F08C1002AFAD1704719
:100AA0007047002001E001C1121F002AFBD17047EE
:100AB00008B5FFF719FCFFF77FFF0D48016841F00B
:100AC00080010160016801F080010091016841F03E
:100AD000010101600068084900F00100009005482C
:100AE00008600846FFF70FFFFFF7E0FBFEE7000096
:100AF00030380240000806501400002000000000BA
:100B00000000000001020304060708092C0B00087E
:100B10000000002014000000920A0008400B0008AA
:100B2000140000200C040000A20A000800000000CD
:100B30000100000010000000000000000024F4008C
:040000050800018965
:00000001FF
