:020000040800F2
:10000000400400209D010008010B0008FD0A0008C3
:10001000FF0A0008A9020008050C00080000000003
:10002000000000000000000000000000250B000898
:10003000AB02000800000000230B0008270B00089B
:10004000B7010008B7010008B7010008B7010008B0
:10005000B7010008B7010008B7010008B7010008A0
:10006000B7010008B7010008B7010008B701000890
:10007000B7010008B7010008B7010008B701000880
:10008000B7010008B7010008B7010008B701000870
:10009000B7010008B7010008B7010008B701000860
:1000A000B7010008B7010008B7010008B701000850
:1000B000B7010008B7010008B7010008B701000840
:1000C000B7010008B7010008B7010008B701000830
:1000D000B7010008B7010008B7010008B701000820
:1000E000B7010008B7010008B7010008B701000810
:1000F000B7010008B7010008B7010008B701000800
:10010000B7010008B7010008B7010008B7010008EF
:10011000B7010008B7010008B7010008B7010008DF
:10012000B7010008B7010008B7010008B7010008CF
:10013000B7010008B7010008B7010008B7010008BF
:10014000B7010008B7010008B7010008B7010008AF
:10015000B7010008B7010008B7010008B70100089F
:10016000B7010008B7010008B7010008B70100088F
:10017000B7010008B7010008B7010008000000003F
:10018000B7010008B7010008DFF80CD000F07AF8DA
:1001900000480047250C000840040020064880471E
:1001A00006480047FEE7FEE7FEE7FEE7FEE7FEE75C
:1001B000FEE7FEE7FEE7FEE7B10B00088901000855
:1001C0002DE9F05F0546002092469B46884606468C
:1001D000814640241BE0284641464746224600F01F
:1001E00041F853465A46C01A914110D31146184659
:1001F000224600F028F82D1A67EB01084F462246E8
:100200000120002100F01FF817EB00094E41201ECD
:10021000A4F10104DFDC484631462A464346BDE8E6
:10022000F09FD2B201E000F8012B491EFBD27047CB
:100230000022F6E710B513460A4604461946FFF7B2
:10024000F0FF204610BD202A04DB203A00FA02F11C
:10025000002070479140C2F1200320FA03F31943B4
:1002600090407047202A04DB203A21FA02F0002156
:10027000704721FA02F3D040C2F1200291400843B6
:1002800019467047064C074D06E0E06840F0010350
:1002900094E8070098471034AC42F6D3FFF778FF94
:1002A0009C0C0008BC0C0008FEE77047002229B136
:1002B00001291AD002291BD04FF440720E490B6855
:1002C00023F440730B600B6813430B600A6822F041
:1002D000F8020A600A68022303EBC00002430A60C6
:1002E000086840F48030086070474FF48072E5E79A
:1002F0004FF40072E2E70000103C0240064A136827
:1003000023F44073136013681360136843F0010310
:100310001360017070470000103C0240084910B59E
:100320000C6824F440740C600C6844F440740C6055
:100330000C6844F001040C600260436010BD0000D2
:10034000103C0240074A136823F44073136013689B
:1003500043F480731360136843F00103136001805A
:1003600070470000103C0240074A136823F44073B2
:100370001360136843F400731360136843F00103C0
:100380001360016070470000103C02401749086884
:10039000C206174805D5C26942F01002C261102298
:1003A0000A600A68920605D5C26942F00802C26175
:1003B00020220A600A68520605D5C26942F004028A
:1003C000C26140220A600A68120605D5C26942F07D
:1003D0000202C26180220A600A68920705D5C269DA
:1003E00042F02002C2610220086070470C3C0240CB
:1003F0001C00002070B5114904460020C86100F0BF
:100400007FF806460E4D09E0601C07D024B100F0CD
:1004100077F8801BA04201D9032070BD2868C00373
:10042000F2D42868C00701D001202860286810F0A5
:10043000F200F2D0FFF7AAFF012070BD1C000020DF
:100440000C3C02400348016841F00041016000207B
:1004500070470000103C02402DE9F0471B4E054656
:100460001446307E1F468946012808D00120307688
:100470004CF250384046FFF7BDFF18B114E002209F
:10048000BDE8F0879DB1012D16D0022D19D022466E
:100490003B464846FFF742FF4046FFF7ABFF0C499B
:1004A0000A6822F001020A6000213176E8E7E1B231
:1004B0004846FFF723FFEFE7A1B24846FFF742FFA8
:1004C000EAE721464846FFF74FFFE5E71C0000201A
:1004D000103C0240074900200A68002A09DA054A50
:1004E000054B0C3A1360054B13600968002900DACC
:1004F00001207047103C024023016745AB89EFCDD6
:1005000001488068704700000C00002002488168A4
:1005100002781144816070470C0000200B4810B530
:10052000016841F400710160016841F4806101607B
:10053000016841F480710160032000F061F800203F
:1005400000F006F800F024F8002010BD003C024046
:1005500070B50D4D04464FF47A712878B1FBF0F078
:100560000A490968B1FBF0F000F0B4FA48B9102C60
:1005700007D200222146501E00F022F800206C60B5
:1005800070BD012070BD00000C000020180000208C
:100590000A4808B5016841F480410160006800F430
:1005A000804000900548001F016841F080510160C3
:1005B000006800F08050009008BD00004438024000
:1005C000F0B40E4B1B680C46C3F30223C3F10705BE
:1005D000042D00D90425191D072901D2002300E0AC
:1005E000DB1E012606FA05F1491E214099409E4076
:1005F000761E16403143F0BC00F083BA0CED00E0EB
:10060000064900F0070208684FF6FF03184040EA69
:100610000220034A10430860704700000CED00E020
:100620000000FA052DE9F0470E46050065D0DFF819
:100630001481D8F80000F7B200F00F00B04207D2E2
:1006400088F80070D8F8000000F00F00B04254D1D4
:1006500028683D4C810712D5400703D5206840F437
:10066000E05020602878000703D5206840F46040FF
:1006700020602068A96820F0F000084320602878F6
:10068000C0072DD0304968680839012812D00228E7
:1006900013D0032811D00968890700292DDA2168B1
:1006A00021F0030101432160FFF72AFF814641F257
:1006B000883A0EE009688903EFE709688901ECE7E9
:1006C000FFF71EFFA0EB0901514502D90320BDE849
:1006D000F0872068696800F00C00B0EB810FEFD163
:1006E000D8F80010404601F00F01B14207D9077059
:1006F000006800F00F00B04201D00120E7E7287841
:10070000400705D52068E96820F4E05008432060E0
:100710002878000706D52068296920F4604040EA5F
:10072000C100206000F016F82168084AC1F30311E7
:10073000515CC840064908600020FFF709FF00200F
:10074000C5E70000003C0240083802408C0C00085D
:1007500018000020154810B5006810F00C0214486D
:1007600013D01449042A0FD0082A0ED10F4C241F8D
:100770002268236802F03F025B0207D52068C0F3BD
:100780008810A0FB010106E0084610BD2168C1F3F6
:100790008811A1FB00010023FFF712FD2168C1F3BE
:1007A0000141491C4900B0FBF1F010BD083802407E
:1007B0000024F40040787D012DE9F84F050076D043
:1007C0002878DFF8F8B2BE4CC00749D0DBF800103B
:1007D0005846C1F38101012908D00068C0F38100A7
:1007E00002280AD1201D0068400206D52068800337
:1007F00036D568680028E2D032E06868B0F5803FFE
:1008000010D0B0F5A02F206810D020F480302060E8
:10081000206820F4802020606868A0B1FFF770FE97
:1008200006460CE0206840F48030F4E740F4802075
:100830002060F7E7FFF764FE801B642873D8206808
:100840008003F7D50CE0FFF75BFE064605E000BF2E
:10085000FFF756FE801B6428F0D820688003F7D489
:100860002878DFF8608280074FF000093ED5DBF87A
:100870000010584611F00C0F09D00068C0F3810039
:1008800002280BD18D48001F0068400206D4206862
:10089000800715D5E868012809D111E0E868B8B1EA
:1008A0000120C8F80000FFF72BFE064605E002E134
:1008B000FFF726FE801B0228C0D820688007F7D5E6
:1008C0002068296920F0F80040EAC10020600DE0AE
:1008D000C8F80090FFF714FE064604E0FFF710FE8C
:1008E000801B02281FD820688007F7D428780007CB
:1008F00022D5724E744869696C3671B1012101606C
:10090000FFF7FEFD074604E0FFF7FAFDC01B0228D3
:1009100009D830688007F7D50EE0C0F80090FFF7DF
:10092000EFFD074605E083E0FFF7EAFDC01B022864
:100930007ED830688007F7D42878400768D5DFF87C
:100940007CA100270AF1380ADAF80000C0000BD4B5
:10095000DAF8001041F08051CAF80010DAF800000F
:10096000012700F080500090584E3068C00510D428
:10097000306840F480703060FFF7C2FD009005E001
:10098000FFF7BEFD0099401A022851D83068C00513
:10099000F6D54A4EA868683601280FD00528306879
:1009A00010D020F001003060306820F0040030608A
:1009B000A868B8B1FFF7A4FD00900FE0306840F0E0
:1009C0000100F4E740F004003060F7E7FFF798FD1E
:1009D0000099411A41F28830814264D8306880071A
:1009E000F4D50EE0FFF78CFD009007E0FFF788FDDF
:1009F0000099411A41F28830814254D8306880070A
:100A0000F4D42FB1DAF8001021F08051CAF80010A8
:100A1000A869C0B3DBF80010C1F3810102294AD0F4
:100A20000228484607D0C8F86000FFF769FD00E0DB
:100A300039E005463AE04746C8F86000FFF760FD38
:100A4000064604E0FFF75CFD801B02282BD82068D7
:100A50008001F7D4D5E907010843A96A1C4A49086F
:100A600002EB01416A6A41EA8211084395F82C10B1
:100A700040EA01611148001F016001203866FFF75C
:100A80003FFD054605E014E0FFF73AFD401B022854
:100A900009D820688001F7D50BE000BFFFF730FDD3
:100AA000401B022802D90320BDE8F88F206880018E
:100AB000F4D40020F8E70120F6E7000008380240EF
:100AC0000038024000004742800E4742007000405C
:100AD0000000FFFF10B5401EB0F1807F01D3012060
:100AE00010BD4FF0E02460610F21601700F009F89D
:100AF0000020A06107202061002010BDFEE7FEE776
:100B000070470907090E002806DA00F00F0000F10F
:100B1000E02080F8141D704700F1E02080F80014F8
:100B2000704770477047FFF7F1BC000030B593B0D5
:100B300030216846FFF77CFB14210CA8FFF778FBF7
:100B400019480025016841F080510160006800F0FB
:100B5000805011901548016841F48041016000689F
:100B6000022400F480401190012003901020049092
:100B7000009406940820CDE90750A820CDE9090487
:100B800004200B906846FFF717FE0CA90F2081E8A0
:100B900031004FF4A0500F90E002109005210CA8F6
:100BA000FFF740FD13B030BD4038024000700040F8
:100BB0001048016841F4700101600F48016841F07C
:100BC000010101600C4A00210832116002680B4BE0
:100BD0001A400260031D0A4A1A60026822F4802249
:100BE000026005480C3001600249580680390860EF
:100BF0007047000088ED00E000380240FFFFF6FE7D
:100C000010300024FEE702E008C8121F08C1002AC5
:100C1000FAD170477047002001E001C1121F002A7D
:100C2000FBD1704708B5FFF779FCFFF77FFF13484A
:100C3000016841F001010160006800F001000090CE
:100C4000FFF748FC0F4C0E4A002302202168FFF7F3
:100C500003FC21680C4A00230220091DFFF7FCFB5E
:100C60002168201D0A680260496841600221012054
:100C7000FFF71CFBFFF7E6FBFEE700003038024001
:100C80007856341200000020403020100000000090
:100C9000000000000102030406070809BC0C00085C
:100CA000000000201C000000060C0008D80C000802
:100CB0001C00002024040000160C0008004000085E
:100CC0000000000000000000010000001000000013
:080CD000000000000024F40004
:040000050800018965
:00000001FF
