:020000040800F2
:10000000A00400209D010008F3110008D110000891
:10001000F1110008CD0300080F14000800000000D3
:10002000000000000000000000000000171200089F
:1000300071040008000000001512000819120008E1
:10004000B7010008B7010008B7010008B7010008B0
:10005000B7010008B7010008B7010008B7010008A0
:10006000B7010008B7010008B7010008B701000890
:10007000B7010008B7010008B7010008B701000880
:10008000B7010008B7010008B7010008B701000870
:10009000B7010008B7010008B7010008B701000860
:1000A000B7010008B7010008B7010008B701000850
:1000B000B7010008B7010008B7010008B701000840
:1000C000B7010008B7010008B7010008B701000830
:1000D000B7010008B7010008B7010008B701000820
:1000E000B7010008B7010008B7010008B701000810
:1000F000B7010008B7010008B7010008B701000800
:10010000B7010008B7010008B7010008B7010008EF
:10011000B7010008B7010008B7010008B7010008DF
:10012000B7010008B7010008B7010008B7010008CF
:10013000B7010008B7010008B7010008B7010008BF
:10014000B7010008B7010008B7010008B7010008AF
:10015000B7010008B7010008B7010008B70100089F
:10016000B7010008B7010008B7010008B70100088F
:10017000B7010008B7010008B7010008000000003F
:10018000B7010008B7010008DFF80CD000F07AF8DA
:100190000048004731140008A004002006488047AA
:1001A00006480047FEE7FEE7FEE7FEE7FEE7FEE75C
:1001B000FEE7FEE7FEE7FEE791120008890100086E
:1001C0002DE9F05F0546002092469B46884606468C
:1001D000814640241BE0284641464746224600F01F
:1001E00041F853465A46C01A914110D31146184659
:1001F000224600F028F82D1A67EB01084F462246E8
:100200000120002100F01FF817EB00094E41201ECD
:10021000A4F10104DFDC484631462A464346BDE8E6
:10022000F09FD2B201E000F8012B491EFBD27047CB
:100230000022F6E710B513460A4604461946FFF7B2
:10024000F0FF204610BD202A04DB203A00FA02F11C
:10025000002070479140C2F1200320FA03F31943B4
:1002600090407047202A04DB203A21FA02F0002156
:10027000704721FA02F3D040C2F1200291400843B6
:1002800019467047064C074D06E0E06840F0010350
:1002900094E8070098471034AC42F6D3FFF778FF94
:1002A0006814000888140008454910B54A6822F40B
:1002B00040324A604A6843681A434A6001684A68A3
:1002C00022F480724A6001684A68036942EA0322A4
:1002D0004A6001684A6822F040724A6001684A68D0
:1002E00083681A434A6001688A6822F400628A605F
:1002F00001688A68C3681A438A60816A6FF0706215
:10030000D14201688A6822F070628A6001688A6856
:100310000CD0836A1A438A6001688A6822F04052CE
:100320008A6001688A68C36A1A4301E022F0405279
:100330008A6001688A6822F002028A6001688A681D
:10034000836942EA43028A60016A002901684A68B7
:100350000FD042F400624A6001684A6822F46042A9
:100360004A6001684A68174C436A04EB43331A43F6
:1003700001E022F400624A600168CA6A22F4700255
:10038000CA620168CA6A838B0F4C04EB03531A4399
:10039000CA6201688A6822F400728A6001688A6809
:1003A000036B42EA43228A6001688A6822F4806211
:1003B0008A6001688A68406942EA8020886010BDCE
:1003C0000023014000E0FFFF0000F0FFFEE7000017
:1003D0002DE9F047DFF888804FF44056214F224C3A
:1003E000DFF888A033E01E4800F0ECFDD8F80000EC
:1003F000406A208040F6B83926E00122314638466E
:1004000000F089FA1648483800F0DAF8A08014485D
:10041000483800F0D5F8E0804FF4FA7000F08CF91D
:100420006088401C80B2608002280DD1D8F800108E
:1004300000254D62D8F80000406A20802A463146E7
:10044000384600F068FA658021884945D5D20121F7
:10045000504600F05BFA0028C5D1BDE8F0870000E7
:1004600060000020000C024000000020000002405C
:100470007047000078B50024009490F83C20012AD1
:1004800019D0012280F83C200A6807230568092A50
:1004900013D9EE680A3A02EB420293409E43EE60A3
:1004A0000B788A680A3B03EB43039A400368DD68D4
:1004B0002A43DA6010E0022078BD2E6902EB420286
:1004C00093409E432E610B788A6803EB43039A4066
:1004D00003681D692A431A614A681F23072A13D239
:1004E00005686E6B521E02EB820293409E436E6360
:1004F0000B790A885B1E92B203EB83039A40036870
:100500005D6B2A435A6327E005680D2A12D22E6BD1
:10051000D21F02EB820293409E432E630B790A881E
:10052000DB1F92B203EB83039A4003681D6B2A43DF
:100530001A6311E0EE6A0D3A02EB820293409E4389
:10054000EE620B790A880D3B92B203EB83039A406B
:100550000368DD6A2A43DA62164B0568144A9D4235
:1005600006D10D68122D03D1556845F480055560FC
:1005700005689D4218D10B68102B01D0112B13D1A7
:10058000536843F400035360096810290CD10A49E9
:100590000A4A0968B1FBF2F101EB8101490000E070
:1005A000491E00910029FBD180F83C40002078BD15
:1005B00000230140002001401400002040420F00B1
:1005C0000068C06C704770B504004FF0000503D0A0
:1005D000206C002610B107E0012070BD666484F82D
:1005E0003C60204600F01AF8206CC00610D4206C45
:1005F00020F4885040F0020020642046FFF754FEAB
:100600006664206C20F0020040F00100206400E0ED
:10061000012584F83C60284670BD000010B586B006
:10062000044614216846FFF703FE114920688842FA
:100630001CD110480021026842F4807202600068F8
:1006400000F4807005900B481438026842F00102F3
:100650000260006800F00100059006200090032071
:10066000CDE901016946044800F078F806B010BDF4
:1006700000200140443802400000024018B500212B
:10068000009190F83C20012A07D0012280F83C20FC
:1006900002689368DB0702D011E0022018BD93685E
:1006A00043F001039360204A204B1268B2FBF3F23F
:1006B00002EB420200E0521E0092002AFBD10268C7
:1006C0009368DB072DD0036C40F20164A34343F42D
:1006D0008073036453685B0505D5036C23F40053F2
:1006E00043F480530364036CDB0404D5436C23F0B0
:1006F0000603436400E0416480F83C100C496FF04D
:100700002203136049680068C90602D0094988427B
:1007100007D1816811F0405F03D1816841F08041C9
:100720008160002018BD00001400002040420F002E
:10073000002301400020014070B5044600F0F0F8AD
:100740000546601C02D004480078044400F0E8F834
:10075000401BA042FAD370BD080000202DE9F84FDD
:10076000DFF87CB100224FF001084FF0030A4FF090
:100770000F090BF1040E00BF0B6808FA02F42340C6
:10078000A3426ED14D68022D01D0122D0ED1D50895
:1007900000EB850CDCF820505607F70E09FA07F637
:1007A000B5430E69BE402E43CCF820600668550064
:1007B0000F790AFA05FC07F0030726EA0C06AF409A
:1007C000374307604E68012E05D0022E03D0112E4C
:1007D00001D0122E0ED18668CF6826EA0C06AF40F3
:1007E000374387604668A6430C79C4F300149440ED
:1007F00034434460C6688C6826EA0C06AC40344337
:10080000C4604C68E40065D5364C256845F48045E5
:100810002560246822F0030504F480440094324CDF
:100820002E19D6F8084895072F0F09FA07F5AC439B
:100830002E4DA84201D1002524E02D4DA84201D122
:1008400001251FE02B4DA84201D102251AE02A4DB7
:10085000A84201D1032515E0284DA84202D1042564
:1008600010E037E0264DA84201D105250AE0254DCC
:10087000A84201D1062505E0234DA84201D1072554
:1008800000E00825BD402543C6F80858DBF80040C5
:100890005D464E689C43F60300D51C432C60DEF891
:1008A000004075464E689C43B60300D51C432C603F
:1008B0000B4D08352C684E689C43F60200D51C434E
:1008C0002C60074D0C352C684E689C43B60200D551
:1008D0001C432C60521C102AFFF44EAFBDE8F88F69
:1008E000003C01404438024000300140000002401A
:1008F0000004024000080240000C024000100240C8
:100900000014024000180240001C02400069084028
:1009100000D0012070470AB1816170470904FBE7EC
:100920000148806870470000080000200248816884
:100930000278114481607047080000200B4810B510
:10094000016841F400710160016841F48061016057
:10095000016841F480710160032000F061F800201B
:1009600000F006F800F024F8002010BD003C024022
:1009700070B50D4D04464FF47A712878B1FBF0F054
:100980000A490968B1FBF0F000F0B2FA48B9102C3E
:1009900007D200222146501E00F022F800206C6091
:1009A00070BD012070BD0000080000201400002070
:1009B0000A4808B5016841F480410160006800F40C
:1009C000804000900548001F016841F0805101609F
:1009D000006800F08050009008BD000044380240DC
:1009E000F0B40E4B1B680C46C3F30223C3F107059A
:1009F000042D00D90425191D072901D2002300E088
:100A0000DB1E012606FA05F1491E214099409E4051
:100A1000761E16403143F0BC00F0ECBB0CED00E05C
:100A2000064900F0070208684FF6FF03184040EA45
:100A30000220034A10430860704700000CED00E0FC
:100A40000000FA052DE9F0470E46050065D0DFF8F5
:100A50001481D8F80000F7B200F00F00B04207D2BE
:100A600088F80070D8F8000000F00F00B04254D1B0
:100A700028683D4C810712D5400703D5206840F413
:100A8000E05020602878000703D5206840F46040DB
:100A900020602068A96820F0F000084320602878D2
:100AA000C0072DD0304968680839012812D00228C3
:100AB00013D0032811D00968890700292DDA21688D
:100AC00021F0030101432160FFF72AFF814641F233
:100AD000883A0EE009688903EFE709688901ECE7C5
:100AE000FFF71EFFA0EB0901514502D90320BDE825
:100AF000F0872068696800F00C00B0EB810FEFD13F
:100B0000D8F80010404601F00F01B14207D9077034
:100B1000006800F00F00B04201D00120E7E728781C
:100B2000400705D52068E96820F4E05008432060BC
:100B30002878000706D52068296920F4604040EA3B
:100B4000C100206000F016F82168084AC1F30311C3
:100B5000515CC840064908600020FFF709FF0020EB
:100B6000C5E70000003C0240083802405814000865
:100B700014000020154810B5006810F00C0214484D
:100B800013D04110042A0FD0082A0ED10F4C241F75
:100B90002268236802F03F025B0207D52068C0F399
:100BA0008810A0FB010106E0084610BD2168C1F3D2
:100BB0008811A1FB00010023FFF702FB2168C1F3AC
:100BC0000141491C4900B0FBF1F010BD083802405A
:100BD0000024F4002DE9F84F050076D02878DFF8DE
:100BE000F8B2BE4CC00749D0DBF800105846C1F33C
:100BF0008101012908D00068C0F3810002280AD1D0
:100C0000201D0068400206D52068800336D568683C
:100C10000028E2D032E06868B0F5803F10D0B0F52F
:100C2000A02F206810D020F480302060206820F4AD
:100C3000802020606868A0B1FFF772FE06460CE0D5
:100C4000206840F48030F4E740F480202060F7E72B
:100C5000FFF766FE801B642873D820688003F7D5F1
:100C60000CE0FFF75DFE064605E000BFFFF758FE0B
:100C7000801B6428F0D820688003F7D42878DFF838
:100C8000608280074FF000093ED5DBF8001058461F
:100C900011F00C0F09D00068C0F3810002280BD1BD
:100CA0008D48001F0068400206D42068800715D5D3
:100CB000E868012809D111E0E868B8B10120C8F856
:100CC0000000FFF72DFE064605E002E1FFF728FED3
:100CD000801B0228C0D820688007F7D520682969C2
:100CE00020F0F80040EAC10020600DE0C8F8009054
:100CF000FFF716FE064604E0FFF712FE801B0228EF
:100D00001FD820688007F7D42878000722D5724EB4
:100D1000744869696C3671B101210160FFF700FE0A
:100D2000074604E0FFF7FCFDC01B022809D8306825
:100D30008007F7D50EE0C0F80090FFF7F1FD0746F9
:100D400005E083E0FFF7ECFDC01B02287ED8306889
:100D50008007F7D42878400768D5DFF87CA1002702
:100D60000AF1380ADAF80000C0000BD4DAF80010F3
:100D700041F08051CAF80010DAF80000012700F0B5
:100D800080500090584E3068C00510D4306840F450
:100D900080703060FFF7C4FD009005E0FFF7C0FDF4
:100DA0000099401A022851D83068C005F6D54A4E3D
:100DB000A868683601280FD00528306810D020F0C8
:100DC00001003060306820F004003060A868B8B1DD
:100DD000FFF7A6FD00900FE0306840F00100F4E757
:100DE00040F004003060F7E7FFF79AFD0099411AE0
:100DF00041F28830814264D830688007F4D50EE033
:100E0000FFF78EFD009007E0FFF78AFD0099411A79
:100E100041F28830814254D830688007F4D42FB131
:100E2000DAF8001021F08051CAF80010A869C0B3A8
:100E3000DBF80010C1F3810102294AD0022848469C
:100E400007D0C8F86000FFF76BFD00E039E0054609
:100E50003AE04746C8F86000FFF762FD064604E046
:100E6000FFF75EFD801B02282BD820688001F7D495
:100E7000D5E907010843A96A1C4A490802EB014168
:100E80006A6A41EA8211084395F82C1040EA016130
:100E90001148001F016001203866FFF741FD05463B
:100EA00005E014E0FFF73CFD401B022809D820684C
:100EB0008001F7D50BE000BFFFF732FD401B022891
:100EC00002D90320BDE8F88F20688001F4D4002007
:100ED000F8E70120F6E70000083802400038024039
:100EE00000004742800E4742007000400000FFFFB4
:100EF00010B5401EB0F1807F01D3012010BD4FF02E
:100F0000E02460610F21601700F074F90020A061F7
:100F100007202061002010BD30B590F83820012A4C
:100F200020D0012280F83820022380F8393003686D
:100F30005C6824F070045C6003685C680D682C4396
:100F40005C6003689C6824F080049C6003689C6873
:100F500049680C439C6080F83920002180F83810E3
:100F6000084630BD022030BD10B5040003D094F80F
:100F7000390010B107E0012010BD002084F83800CE
:100F8000204600F00DF8022084F83900211D206869
:100F900000F0A8F9012084F83900002010BD0000FD
:100FA00008B50068B0F1804F08D10548016841F0EC
:100FB00001010160006800F00100009008BD000020
:100FC00040380240022180F8391001680A6842F076
:100FD00001020A60012180F839100020704770B5C5
:100FE000044690F83800012817D0012584F83850BD
:100FF000022084F839002068826822F0770222F407
:101000007F4282600868502837D00DDC202859D0F4
:1010100005DC88B3102841D151E0022070BD302892
:1010200053D040283AD13FE060282ED070280BD012
:10103000B0F5805F03D0B0F5005F2FD110E02068DD
:10104000816821F0070115E0CB68D1E90121206812
:1010500000F0A8F92168886840F0770088601DE0FA
:10106000CB68D1E90121206800F09CF920688168F3
:1010700041F48041816011E01EE0CA68496820683F
:1010800000F0A2F95021206806E0CA68496820688B
:1010900000F0ABF96021206800F08EF984F8395037
:1010A000002084F8380070BDCA684968206800F0E4
:1010B0008BF940212068EFE700212068ECE7102140
:1010C0002068E9E720212068E6E730212068E3E78F
:1010D000FEE700007FB500241348009401940294B9
:1010E00010490394C0E900140125846005610F498B
:1010F0000462C0E90A14C46002260463C0E906560B
:101100004561FFF760FA0095CDE90154694606484C
:10111000FFF7B0F90096694603480196FFF7AAF970
:101120007FBD000000200140180000200100000FDA
:10113000F0B587B014216846FFF77AF81548002407
:10114000016841F001010160016801F001010591B0
:10115000016841F00801016000680F4F00F00800CD
:101160004FF440560590224631463846FFF7D3FBF0
:101170000125CDE90054694608480294FFF7EEFACC
:101180000096CDE90154694638460394FFF7E6FA24
:1011900007B0F0BD30380240000C024000000240B1
:1011A00010B586B000241148009401940294039471
:1011B00004944FF080410594016043F67F61C0E9DB
:1011C000011442F20F71C0E90314FFF7CDFE4FF492
:1011D0008050009069460548FFF701FF049404A978
:1011E00002480594FFF798FE06B010BD600000208D
:1011F000FEE770470907090E002806DA00F00F0025
:1012000000F1E02080F8141D704700F1E02080F824
:101210000014704770477047FFF788BB10B592B055
:1012200030216846FFF704F814210CA8FFF700F8F6
:1012300015480024016841F080510160006800F009
:10124000805011901148016841F4804101600068AC
:10125000069400F480401190022000900120039039
:10126000102004906846FFF7B5FC0F20CDE90C0470
:101270004FF480500E94CDE90F4000210CA8FFF7E9
:10128000E1FB12B010BD0000403802400070004089
:101290001048016841F4700101600F48016841F095
:1012A000010101600C4A00210832116002680B4BF9
:1012B0001A400260031D0A4A1A60026822F4802262
:1012C000026005480C300160024958068039086008
:1012D0007047000088ED00E000380240FFFFF6FE96
:1012E00010300024F0B50268234B244D244E254FC6
:1012F000254C4FF0804C984209D0604507D0A84259
:1013000005D0B04203D0B84201D0A04204D122F0AF
:10131000700E4A6842EA0E0298421BD0604519D00E
:10132000A84217D0B04215D0B84213D0A04211D075
:10133000164DA8420ED0164DA8420BD0154DA8420E
:1013400008D0154DA84205D0144DA84202D0144D26
:10135000A84203D122F44075CA682A4302608A6811
:10136000C2620A688262984201D0A04201D1096932
:10137000016301214161F0BD000001400004004013
:1013800000080040000C0040000401400040014003
:10139000004401400048014000180040001C00408B
:1013A0000020004010B5846842EA032224F47F4400
:1013B0000A432243826010BD826822F070020A4311
:1013C00042F007018160704710B5036A046A24F097
:1013D00001040462846924F0F00444EA021423F056
:1013E0000A020A438461026210BD10B5036A23F049
:1013F000100303628369046A23F4704343EA0232F0
:1014000024F0A00343EA01118261016210BDFEE7EE
:1014100002E008C8121F08C1002AFAD170477047BD
:10142000002001E001C1121F002AFBD1704700001B
:10143000FFF784FAFFF7F2FEFFF77AFEFFF7B0FE40
:10144000FFF748FE0348FFF719F900BFFEF7C0FF9A
:10145000FCE7000018000020000000000000000071
:101460000102030406070809881400080000002090
:101470001800000010140008A01400081800002034
:101480008804000020140008000000000000000094
:101490000100000010000000000000000024F40023
:040000050800018965
:00000001FF
