:020000040800F2
:10000000580400209D0100081B0F0008950E0008F1
:10001000190F0008A902000853140008000000008E
:100020000000000000000000000000003F0F00087A
:10003000AB020008000000003D0F0008410F00085F
:10004000B7010008B7010008B7010008B7010008B0
:10005000B7010008B7010008B7010008B7010008A0
:10006000B7010008B7010008B7010008B701000890
:10007000B7010008B7010008B7010008B701000880
:10008000B7010008B7010008B7010008B701000870
:10009000B7010008B7010008B7010008B701000860
:1000A000B7010008B7010008B7010008B701000850
:1000B000B7010008B7010008B7010008B701000840
:1000C000B7010008B7010008B7010008B701000830
:1000D000B7010008B7010008B7010008B701000820
:1000E000B7010008B7010008B7010008B701000810
:1000F000B7010008B7010008B7010008B701000800
:10010000B7010008B7010008B7010008B7010008EF
:10011000B70100081D100008B7010008B70100086A
:10012000B7010008B7010008B7010008B7010008CF
:10013000B7010008B7010008B7010008B7010008BF
:10014000B7010008B7010008B7010008B7010008AF
:10015000B7010008B7010008B7010008B70100089F
:10016000B7010008B7010008B7010008B70100088F
:10017000B7010008B7010008B7010008000000003F
:10018000B7010008B7010008DFF80CD000F07AF8DA
:1001900000480047751400085804002006488047AE
:1001A00006480047FEE7FEE7FEE7FEE7FEE7FEE75C
:1001B000FEE7FEE7FEE7FEE7C90F00088901000839
:1001C0002DE9F05F0546002092469B46884606468C
:1001D000814640241BE0284641464746224600F01F
:1001E00041F853465A46C01A914110D31146184659
:1001F000224600F028F82D1A67EB01084F462246E8
:100200000120002100F01FF817EB00094E41201ECD
:10021000A4F10104DFDC484631462A464346BDE8E6
:10022000F09FD2B201E000F8012B491EFBD27047CB
:100230000022F6E710B513460A4604461946FFF7B2
:10024000F0FF204610BD202A04DB203A00FA02F11C
:10025000002070479140C2F1200320FA03F31943B4
:1002600090407047202A04DB203A21FA02F0002156
:10027000704721FA02F3D040C2F1200291400843B6
:1002800019467047064C074D06E0E06840F0010350
:1002900094E8070098471034AC42F6D3FFF778FF94
:1002A000F414000814150008FEE7704790F83510A4
:1002B000022903D08021416501207047052180F883
:1002C00035100068016821F00101016000207047CD
:1002D0002DE9F84FDFF87CB100224FF001084FF014
:1002E000030A4FF00F090BF1040E00BF0B6808FA68
:1002F00002F42340A3426ED14D68022D01D0122D8D
:100300000ED1D50800EB850CDCF820505607F70E0F
:1003100009FA07F6B5430E69BE402E43CCF82060BB
:10032000066855000F790AFA05FC07F0030726EA6C
:100330000C06AF40374307604E68012E05D0022EF1
:1003400003D0112E01D0122E0ED18668CF6826EA76
:100350000C06AF40374387604668A6430C79C4F368
:100360000014944034434460C6688C6826EA0C0646
:10037000AC403443C4604C68E40065D5364C256815
:1003800045F480452560246822F0030504F4804488
:100390000094324C2E19D6F8084895072F0F09FA09
:1003A00007F5AC432E4DA84201D1002524E02D4D88
:1003B000A84201D101251FE02B4DA84201D1022501
:1003C0001AE02A4DA84201D1032515E0284DA84284
:1003D00002D1042510E037E0264DA84201D10525C1
:1003E0000AE0254DA84201D1062505E0234DA8428B
:1003F00001D1072500E00825BD402543C6F808586F
:10040000DBF800405D464E689C43F60300D51C4374
:100410002C60DEF8004075464E689C43B60300D55C
:100420001C432C600B4D08352C684E689C43F6022B
:1004300000D51C432C60074D0C352C684E689C433E
:10044000B60200D51C432C60521C102AFFF44EAF9C
:10045000BDE8F88F003C01404438024000300140C4
:10046000000002400004024000080240000C02406C
:10047000001002400014024000180240001C02401C
:1004800042694A40426170470AB18161704709047C
:10049000FBE700000148806870470000040000206E
:1004A000024881680278114481607047040000208E
:1004B0000B4810B5016841F400710160016841F416
:1004C00080610160016841F480710160032000F0E7
:1004D0006DF8002000F006F800F024F8002010BDB0
:1004E000003C024070B50D4D04464FF47A712878F7
:1004F000B1FBF0F00A490968B1FBF0F000F0DEFA58
:1005000048B9102C07D200222146501E00F02EF8C8
:1005100000206C6070BD012070BD00000400002050
:10052000100000200A4808B5016841F480410160CC
:10053000006800F4804000900548001F016841F009
:1005400080510160006800F08050009008BD0000FC
:100550004438024000F01F02012191404009800010
:1005600000F1E020C0F8001170470000F0B40E4B1D
:100570001B680C46C3F30223C3F10705042D00D901
:100580000425191D072901D2002300E0DB1E0126E6
:1005900006FA05F1491E214099409E40761E1640FC
:1005A0003143F0BC00F0BABC0CED00E0064900F0AD
:1005B000070208684FF6FF03184040EA0220034A8A
:1005C00010430860704700000CED00E00000FA05E1
:1005D0002DE9F0470E46050065D0DFF81481D8F804
:1005E0000000F7B200F00F00B04207D288F80070A8
:1005F000D8F8000000F00F00B04254D128683D4CFC
:10060000810712D5400703D5206840F4E0502060F0
:100610002878000703D5206840F4604020602068F7
:10062000A96820F0F000084320602878C0072DD08A
:10063000304968680839012812D0022813D00328ED
:1006400011D00968890700292DDA216821F00301FA
:1006500001432160FFF71EFF814641F2883A0EE018
:1006600009688903EFE709688901ECE7FFF712FFE2
:10067000A0EB0901514502D90320BDE8F0872068AD
:10068000696800F00C00B0EB810FEFD1D8F80010D2
:10069000404601F00F01B14207D90770006800F031
:1006A0000F00B04201D00120E7E72878400705D5C8
:1006B0002068E96820F4E0500843206028780007AB
:1006C00006D52068296920F4604040EAC100206016
:1006D00000F036F82168084AC1F30311515CC840A4
:1006E000064908600020FFF7FDFE0020C5E7000076
:1006F000003C024008380240DC14000810000020D2
:100700000448054900680968044AC1F38221515C24
:10071000C84070471000002008380240EC14000860
:100720000448054900680968044AC1F34231515C34
:10073000C84070471000002008380240EC14000840
:10074000154810B5006810F00C02144813D0411081
:10075000042A0FD0082A0ED10F4C241F22682368C8
:1007600002F03F025B0207D52068C0F38810A0FBAF
:10077000010106E0084610BD2168C1F38811A1FB04
:1007800000010023FFF71CFD2168C1F30141491C52
:100790004900B0FBF1F010BD083802400024F4001D
:1007A0002DE9F84F050076D02878DFF8F8B2BE4C76
:1007B000C00749D0DBF800105846C1F38101012978
:1007C00008D00068C0F3810002280AD1201D00680B
:1007D000400206D52068800336D568680028E2D03C
:1007E00032E06868B0F5803F10D0B0F5A02F2068E7
:1007F00010D020F480302060206820F48020206019
:100800006868A0B1FFF746FE06460CE0206840F499
:100810008030F4E740F480202060F7E7FFF73AFEED
:10082000801B642873D820688003F7D50CE0FFF79D
:1008300031FE064605E000BFFFF72CFE801B642852
:10084000F0D820688003F7D42878DFF8608280072A
:100850004FF000093ED5DBF80010584611F00C0FA0
:1008600009D00068C0F3810002280BD18D48001F19
:100870000068400206D42068800715D5E868012882
:1008800009D111E0E868B8B10120C8F80000FFF70D
:1008900001FE064605E002E1FFF7FCFD801B022891
:1008A000C0D820688007F7D52068296920F0F800B3
:1008B00040EAC10020600DE0C8F80090FFF7EAFDB3
:1008C000064604E0FFF7E6FD801B02281FD82068DB
:1008D0008007F7D42878000722D5724E74486969DA
:1008E0006C3671B101210160FFF7D4FD074604E0C9
:1008F000FFF7D0FDC01B022809D830688007F7D564
:100900000EE0C0F80090FFF7C5FD074605E083E064
:10091000FFF7C0FDC01B02287ED830688007F7D4DF
:100920002878400768D5DFF87CA100270AF1380A4B
:10093000DAF80000C0000BD4DAF8001041F0805162
:10094000CAF80010DAF80000012700F0805000908B
:10095000584E3068C00510D4306840F48070306064
:10096000FFF798FD009005E0FFF794FD0099401A0D
:10097000022851D83068C005F6D54A4EA8686836B6
:1009800001280FD00528306810D020F00100306019
:10099000306820F004003060A868B8B1FFF77AFD35
:1009A00000900FE0306840F00100F4E740F00400F0
:1009B0003060F7E7FFF76EFD0099411A41F2883089
:1009C000814264D830688007F4D50EE0FFF762FDFD
:1009D000009007E0FFF75EFD0099411A41F2883070
:1009E000814254D830688007F4D42FB1DAF800106F
:1009F00021F08051CAF80010A869C0B3DBF80010DC
:100A0000C1F3810102294AD00228484607D0C8F81C
:100A10006000FFF73FFD00E039E005463AE0474659
:100A2000C8F86000FFF736FD064604E0FFF732FD28
:100A3000801B02282BD820688001F7D4D5E9070154
:100A40000843A96A1C4A490802EB01416A6A41EA63
:100A50008211084395F82C1040EA01611148001FEB
:100A6000016001203866FFF715FD054605E014E03A
:100A7000FFF710FD401B022809D820688001F7D538
:100A80000BE000BFFFF706FD401B022802D9032040
:100A9000BDE8F88F20688001F4D40020F8E7012039
:100AA000F6E70000083802400038024000004742E4
:100AB000800E4742007000400000FFFF10B5401E4E
:100AC000B0F1807F01D3012010BD4FF0E0246061C0
:100AD0000F21601700F022FA0020A061072020619A
:100AE000002010BD7047000070B502680446106811
:100AF000D168536910F00F0F50D003F0010501F4D5
:100B0000907635435DD0C20705D0CA0503D5E26BA8
:100B100042F00102E263420705D5DA0703D0E26B37
:100B200042F00202E263820705D5DA0703D0E26BE6
:100B300042F00402E263020705D5DA0703D0E26B54
:100B400042F00802E263E26B002A33D0800604D54B
:100B5000880602D5204600F07DFA20684069E16BE6
:100B6000C0F38010090700D428B3204600F064FACF
:100B70002068416949061AD5416921F04001416167
:100B8000606BA0B11B490165606BFFF78FFB00280C
:100B900010D0606B016DBDE870400847830610D52A
:100BA0008B060ED52046BDE8704000F053BA2046B3
:100BB000FFF798FF70BD2046FFF794FF0020E06329
:100BC00070BD030606D50B0604D52046BDE870406F
:100BD00000F0DCBB4006F3D54806F1D5D1682046CD
:100BE00021F04001D160202184F8391000F051F942
:100BF00070BD00002910000870B5040004D094F8FE
:100C00003900002510B106E0012070BD84F838508D
:100C1000204600F023F8242084F839002068C168B9
:100C200021F40051C160204600F05AFA20680169A1
:100C300021F4904101612068416921F02A0141615C
:100C40002068C16841F40051C160E563202084F848
:100C5000390084F83A00002070BD0000F0B587B07C
:100C6000044614216846FFF7E3FA1E4920688842CB
:100C700035D11D48016841F480110160006800F41D
:100C80008010059018481038016841F00401016097
:100C9000016801F004010591016841F0080101605B
:100CA0000068022400F0080005904FF480500125F0
:100CB000032608278DE8F10069460C48FFF708FB7A
:100CC00004208DE8F10069460948FFF701FB002286
:100CD00011463520FFF74AFC3520FFF73BFC07B0F3
:100CE000F0BD0000005000404038024000080240C3
:100CF000000C024090F83A30202B1DD1D1B1CAB17E
:100D000090F83830012B17D081628285C28500218E
:100D1000C163222280F83A2080F8381001684A69BD
:100D200042F001024A610068C16841F49071C160FB
:100D300000207047012070470220704770B500689E
:100D40001D49884236D11D480025441E0278411CA9
:100D500020780A54401CC0B22070022816D00ED948
:100D60004FF064034FF0050215A1174800F034F866
:100D70006423012215A1144800F02EF82570BDE867
:100D8000704001220D491048FFF7B4BF0B48401CCA
:100D900040780A28F3D10878401E00F00F014FF484
:100DA0008050884081B20A48FFF76AFB6423022220
:100DB00008A1DAE770BD00000050004001000020EB
:100DC0004552524F52000000140000200A0000005B
:100DD000000C02404F4B00002DE9F843044690F808
:100DE00039001F4616460D46202850D1A5B19EB1A8
:100DF00094F8380001284AD0012084F838004FF0D8
:100E00000008C4F83C80212084F83900FFF742FB39
:100E1000A6848146E68426E00120BDE8F883E08CC4
:100E2000401EE084A0684B46B0F5805F4FF00002A2
:100E30004FF080012046009703D000F0D8FAE8B9BF
:100E40000DE000F0D4FAC8B928882168C0F3080082
:100E50004860206908B16D1C05E0AD1C03E0216805
:100E600015F8010B4860E08C0028D8D14B460022D1
:100E700040212046009700F0BAFA08B10320CCE7E1
:100E8000202084F8390084F838800020C5E702204B
:100E9000C3E77047FEE7000070B586B014216846CE
:100EA000FFF7C6F91A480024016841F0800101608B
:100EB000016801F080010591016841F008010160BD
:100EC000016801F008010591016841F0010101602C
:100ED000016801F001010591016841F00401016020
:100EE00000680C4E00F004004FF47045059000229D
:100EF00029463046FFF7C8FA01200095CDE90104E4
:100F0000694630460394FFF7E3F906B070BD000070
:100F100030380240000C0240FEE770470907090E16
:100F2000002806DA00F00F0000F1E02080F8141D20
:100F3000704700F1E02080F8001470477047704758
:100F4000FFF7AEBA30B593B030216846FFF770F9BD
:100F500014210CA8FFF76CF919480025016841F02D
:100F600080510160006800F08050119015480168C0
:100F700041F4804101600068022400F48040119037
:100F800001200090000401908001CDE9064008AAEC
:100F90000420A82182E813000B906846FFF700FCAC
:100FA0000CA90F2081E831004FF4A0500F90E0020F
:100FB000109005210CA8FFF70BFB13B030BD00000B
:100FC00040380240007000401048016841F4700150
:100FD00001600F48016841F0010101600C4A0021E5
:100FE0000832116002680B4B1A400260031D0A4A66
:100FF0001A60026822F48022026005480C30016009
:1010000002495806803908607047000088ED00E00A
:1010100000380240FFFFF6FE103000240148FFF7C1
:1010200063BD00001400002010B5806B0021C18555
:10103000C184FFF757FD10BD0168CA6822F49072A1
:10104000CA6001684A6922F001024A61202180F8E1
:101050003A10704710B590F83A10222901D00220BA
:1010600010BD8168B1F5805F11D001690029016868
:101070001FD0496801F07F03816A4A1C82620B70AD
:10108000C18D491E0904090CC18518D026E00269EA
:10109000816A002A0268526805D0D2B20A80816A49
:1010A000491C8162ECE7C2F308020A80816A891C4C
:1010B000F7E74A68816A4B1C83620A70E0E70168BF
:1010C000CA6822F49072CA6001684A6922F001027B
:1010D0004A61202180F83A10FFF730FE002010BD51
:1010E0002DE9F04104460068016921F44052E168AD
:1010F000114301612168C86849F20C629043236979
:10110000A268E5691A4363692B431A430243CA6024
:101110002168486920F44072A06910434861E16980
:101120006425B1F5004F9748974A21684FF032087F
:101130003FD0914201D081427CD1FFF7F1FA00EB20
:10114000C00101EB001061688900B0FBF1F6FFF708
:10115000E7FA00EBC00101EB001061688900B0FB09
:10116000F1F0B0FBF5F06FF01801484306EB800199
:1011700008EB0110B0FBF5F000F0F006FFF7D0FA35
:1011800000EBC00101EB001061688900B0FBF1F0D9
:10119000B0FBF5F006EB0016FFF7C2FA00EBC0015A
:1011A00001EB001061688900B0FBF1F7FFF7B8FAB6
:1011B000D2E0914201D081423DD1FFF7B1FA00EB7C
:1011C000C00101EB001061684900B0FBF1F0B0FB19
:1011D000F5F00601FFF7A4FA00EBC00101EB0010E7
:1011E00061684900B0FBF1F7FFF79AFA00EBC00124
:1011F00001EB001061684900B0FBF1F0B0FBF5F0C5
:101200006FF01801484307EB800108EBC100B0FB09
:10121000F5F000F0F80006EB4006FFF781FA00EB6E
:10122000C00101EB001061684900B0FBF1F7FFF766
:1012300077FA3CE055E0FFF763FA00EBC00101EB01
:10124000001061684900B0FBF1F0B0FBF5F0060159
:10125000FFF756FA00EBC00101EB0010616849008E
:10126000B0FBF1F7FFF74CFA00EBC00101EB001007
:1012700061684900B0FBF1F0B0FBF5F06FF01801C8
:10128000484307EB800108EBC100B0FBF5F000F02C
:10129000F80006EB4006FFF733FA00EBC00101EB64
:1012A000001061684900B0FBF1F7FFF729FA00EB85
:1012B000C00101EB001061684900B0FBF1F0B0FB28
:1012C000F5F06FF01801484307EB800108EBC1000F
:1012D000B0FBF5F000F00700216830448860BDE8FD
:1012E000F081FFF70DFA00EBC00101EB001061681F
:1012F0008900B0FBF1F6FFF703FA00EBC00101EB48
:10130000001061688900B0FBF1F0B0FBF5F06FF000
:101310001801484306EB800108EB0110B0FBF5F023
:1013200000F0F006FFF7ECF900EBC00101EB001054
:1013300061688900B0FBF1F0B0FBF5F006EB001638
:10134000FFF7DEF900EBC00101EB001061688900D6
:10135000B0FBF1F7FFF7D4F900EBC00101EB00108F
:1013600061688900B0FBF1F0B0FBF5F06FF0180197
:10137000484307EB800108EB0110B0FBF5F000F0EB
:101380000F00A9E7001401400010014090F8391047
:10139000212901D0022070478168B1F5805F016A80
:1013A0000BD04A1C0262026809785160C18C491E48
:1013B0000904090CC1840ED017E009880268C1F342
:1013C0000801516001690029016A02D0491C0162CB
:1013D000ECE7891CFBE70168CA6822F08002CA605A
:1013E0000068C16841F04001C160002070472DE9EC
:1013F000F041984617460E460446069D1DE0681CBF
:101400001BD02DB1FFF746F8A0EB0800A84214D975
:101410002068C16821F4D071C1602068416921F061
:1014200001014161202084F8390084F83A0000204D
:1014300084F838000320BDE8F0812068006836EAAF
:10144000000004D00020B842D9D00020F3E70120EA
:10145000F9E7FEE702E008C8121F08C1002AFAD126
:1014600070477047002001E001C1121F002AFBD124
:1014700070470000FFF71CF8FFF764FDFFF70CFD55
:10148000114810490C2201604FF4E1314160002104
:101490008160C160C0E904128161C161FFF7ACFBEA
:1014A0006423062209A10848FFF796FC6423012261
:1014B00008A10548FFF790FC012207490248FFF701
:1014C00019FCFEE7005000401400002048656C6CD9
:1014D0006F2100000A000000010000200000000051
:1014E00000000000010203040607080900000000D4
:1014F000010203041415000800000020140000007D
:1015000054140008281500081400002044040000AA
:10151000641400080000000001000000100000003A
:08152000000000000024F400AB
:040000050800018965
:00000001FF
