:020000040800F2
:10000000500400209D010008370D0008D10C0008A5
:10001000350D0008A9020008190F000800000000B3
:100020000000000000000000000000005B0D000860
:10003000AB02000800000000590D00085D0D00082B
:10004000B7010008B7010008B7010008B7010008B0
:10005000B7010008B7010008B7010008B7010008A0
:10006000B7010008B7010008B7010008B701000890
:10007000B7010008B7010008B7010008B701000880
:10008000B7010008B7010008B7010008B701000870
:10009000B7010008B7010008B7010008B701000860
:1000A000B7010008B7010008B7010008B701000850
:1000B000B7010008B7010008B7010008B701000840
:1000C000B7010008B7010008B7010008B701000830
:1000D000B7010008B7010008B7010008B701000820
:1000E000B7010008B7010008B7010008B701000810
:1000F000B7010008B7010008B7010008B701000800
:10010000B7010008B7010008B7010008B7010008EF
:10011000B7010008B7010008B7010008390E000850
:10012000B7010008B7010008B7010008B7010008CF
:10013000B7010008B7010008B7010008B7010008BF
:10014000B7010008B7010008B7010008B7010008AF
:10015000B7010008B7010008B7010008B70100089F
:10016000B7010008B7010008B7010008B70100088F
:10017000B7010008B7010008B7010008000000003F
:10018000B7010008B7010008DFF80CD000F07AF8DA
:1001900000480047390F00085004002006488047F7
:1001A00006480047FEE7FEE7FEE7FEE7FEE7FEE75C
:1001B000FEE7FEE7FEE7FEE7E50D0008890100081F
:1001C0002DE9F05F0546002092469B46884606468C
:1001D000814640241BE0284641464746224600F01F
:1001E00041F853465A46C01A914110D31146184659
:1001F000224600F028F82D1A67EB01084F462246E8
:100200000120002100F01FF817EB00094E41201ECD
:10021000A4F10104DFDC484631462A464346BDE8E6
:10022000F09FD2B201E000F8012B491EFBD27047CB
:100230000022F6E710B513460A4604461946FFF7B2
:10024000F0FF204610BD202A04DB203A00FA02F11C
:10025000002070479140C2F1200320FA03F31943B4
:1002600090407047202A04DB203A21FA02F0002156
:10027000704721FA02F3D040C2F1200291400843B6
:1002800019467047064C074D06E0E06840F0010350
:1002900094E8070098471034AC42F6D3FFF778FF94
:1002A000900F0008B00F0008FEE770472DE9F84FE7
:1002B000DFF87CB100224FF001084FF0030A4FF045
:1002C0000F090BF1040E00BF0B6808FA02F423407B
:1002D000A3426ED14D68022D01D0122D0ED1D5084A
:1002E00000EB850CDCF820505607F70E09FA07F6EC
:1002F000B5430E69BE402E43CCF820600668550019
:100300000F790AFA05FC07F0030726EA0C06AF404E
:10031000374307604E68012E05D0022E03D0112E00
:1003200001D0122E0ED18668CF6826EA0C06AF40A7
:10033000374387604668A6430C79C4F300149440A1
:1003400034434460C6688C6826EA0C06AC403443EB
:10035000C4604C68E40065D5364C256845F480459A
:100360002560246822F0030504F480440094324C94
:100370002E19D6F8084895072F0F09FA07F5AC4350
:100380002E4DA84201D1002524E02D4DA84201D1D7
:1003900001251FE02B4DA84201D102251AE02A4D6C
:1003A000A84201D1032515E0284DA84202D1042519
:1003B00010E037E0264DA84201D105250AE0254D81
:1003C000A84201D1062505E0234DA84201D1072509
:1003D00000E00825BD402543C6F80858DBF800407A
:1003E0005D464E689C43F60300D51C432C60DEF846
:1003F000004075464E689C43B60300D51C432C60F4
:100400000B4D08352C684E689C43F60200D51C4302
:100410002C60074D0C352C684E689C43B60200D505
:100420001C432C60521C102AFFF44EAFBDE8F88F1D
:10043000003C0140443802400030014000000240CE
:100440000004024000080240000C0240001002407C
:100450000014024000180240001C024042694A4059
:10046000426170470AB1816170470904FBE70000EF
:100470000148806870470000000000200248816841
:100480000278114481607047000000200B4810B5CD
:10049000016841F400710160016841F4806101600C
:1004A000016841F480710160032000F06DF80020C4
:1004B00000F006F800F024F8002010BD003C0240D7
:1004C00070B50D4D04464FF47A712878B1FBF0F009
:1004D0000A490968B1FBF0F000F0BEFA48B9102CE7
:1004E00007D200222146501E00F02EF800206C603A
:1004F00070BD012070BD0000000000200C00002035
:100500000A4808B5016841F480410160006800F4C0
:10051000804000900548001F016841F08051016053
:10052000006800F08050009008BD00004438024090
:1005300000F01F02012191404009800000F1E020FD
:10054000C0F8001170470000F0B40E4B1B680C4659
:10055000C3F30223C3F10705042D00D90425191D97
:10056000072901D2002300E0DB1E012606FA05F16F
:10057000491E214099409E40761E16403143F0BCF2
:1005800000F0DABB0CED00E0064900F00702086855
:100590004FF6FF03184040EA0220034A1043086068
:1005A000704700000CED00E00000FA052DE9F0476F
:1005B0000E46050065D0DFF81481D8F80000F7B2C8
:1005C00000F00F00B04207D288F80070D8F80000A1
:1005D00000F00F00B04254D128683D4C810712D57D
:1005E000400703D5206840F4E050206028780007D9
:1005F00003D5206840F4604020602068A96820F09E
:10060000F000084320602878C0072DD03049686882
:100610000839012812D0022813D0032811D0096804
:10062000890700292DDA216821F0030101432160A7
:10063000FFF71EFF814641F2883A0EE00968890300
:10064000EFE709688901ECE7FFF712FFA0EB09016A
:10065000514502D90320BDE8F0872068696800F0A1
:100660000C00B0EB810FEFD1D8F80010404601F03C
:100670000F01B14207D90770006800F00F00B042C7
:1006800001D00120E7E72878400705D52068E96810
:1006900020F4E050084320602878000706D5206841
:1006A000296920F4604040EAC100206000F016F89B
:1006B0002168084AC1F30311515CC840064908602B
:1006C0000020FFF7FDFE0020C5E70000003C0240CF
:1006D00008380240800F00080C000020154810B5B3
:1006E000006810F00C02144813D04110042A0FD0F7
:1006F000082A0ED10F4C241F2268236802F03F0203
:100700005B0207D52068C0F38810A0FB010106E05A
:10071000084610BD2168C1F38811A1FB0001002328
:10072000FFF74EFD2168C1F30141491C4900B0FBB0
:10073000F1F010BD083802400024F4002DE9F84F14
:10074000050076D02878DFF8F8B2BE4CC00749D053
:10075000DBF800105846C1F38101012908D0006878
:10076000C0F3810002280AD1201D0068400206D58E
:100770002068800336D568680028E2D032E06868D7
:10078000B0F5803F10D0B0F5A02F206810D020F435
:1007900080302060206820F4802020606868A0B14C
:1007A000FFF766FE06460CE0206840F48030F4E770
:1007B00040F480202060F7E7FFF75AFE801B642892
:1007C00073D820688003F7D50CE0FFF751FE06468A
:1007D00005E000BFFFF74CFE801B6428F0D82068BE
:1007E0008003F7D42878DFF8608280074FF0000993
:1007F0003ED5DBF80010584611F00C0F09D0006808
:10080000C0F3810002280BD18D48001F0068400210
:1008100006D42068800715D5E868012809D111E0C1
:10082000E868B8B10120C8F80000FFF721FE0646CD
:1008300005E002E1FFF71CFE801B0228C0D82068FB
:100840008007F7D52068296920F0F80040EAC10048
:1008500020600DE0C8F80090FFF70AFE064604E0AD
:10086000FFF706FE801B02281FD820688007F7D4F8
:100870002878000722D5724E744869696C3671B1C8
:1008800001210160FFF7F4FD074604E0FFF7F0FDEA
:10089000C01B022809D830688007F7D50EE0C0F8E1
:1008A0000090FFF7E5FD074605E083E0FFF7E0FD78
:1008B000C01B02287ED830688007F7D4287840070C
:1008C00068D5DFF87CA100270AF1380ADAF80000C1
:1008D000C0000BD4DAF8001041F08051CAF80010C3
:1008E000DAF80000012700F080500090584E306880
:1008F000C00510D4306840F480703060FFF7B8FD58
:10090000009005E0FFF7B4FD0099401A022851D885
:100910003068C005F6D54A4EA868683601280FD061
:100920000528306810D020F001003060306820F0D9
:1009300004003060A868B8B1FFF79AFD00900FE09E
:10094000306840F00100F4E740F004003060F7E761
:10095000FFF78EFD0099411A41F28830814264D838
:1009600030688007F4D50EE0FFF782FD009007E0C5
:10097000FFF77EFD0099411A41F28830814254D838
:1009800030688007F4D42FB1DAF8001021F08051DC
:10099000CAF80010A869C0B3DBF80010C1F38101E8
:1009A00002294AD00228484607D0C8F86000FFF75D
:1009B0005FFD00E039E005463AE04746C8F86000D0
:1009C000FFF756FD064604E0FFF752FD801B0228A4
:1009D0002BD820688001F7D4D5E907010843A96A1C
:1009E0001C4A490802EB01416A6A41EA8211084344
:1009F00095F82C1040EA01611148001F01600120A8
:100A00003866FFF735FD054605E014E0FFF730FDD9
:100A1000401B022809D820688001F7D50BE000BFF1
:100A2000FFF726FD401B022802D90320BDE8F88FFE
:100A300020688001F4D40020F8E70120F6E70000E8
:100A4000083802400038024000004742800E47420A
:100A5000007000400000FFFF10B5401EB0F1807F25
:100A600001D3012010BD4FF0E02460610F21601719
:100A700000F062F90020A06107202061002010BD75
:100A80007047704730B590F83820012A20D00122F5
:100A900080F83820022380F8393003685C6824F03D
:100AA00070045C6003685C680D682C435C600368DC
:100AB0009C6824F080049C6003689C6849680C432F
:100AC0009C6080F83920002180F83810084630BD3D
:100AD000022030BD10B5040003D094F8390010B1E5
:100AE00007E0012010BD002084F83800204600F007
:100AF0000DF8022084F83900211D206800F0ACF9BF
:100B0000012084F83900002010BD000008B50068FD
:100B10000B49884212D10B48016841F02001016065
:100B20000068002200F02000009011463720FFF7F7
:100B30000BFDBDE808403720FFF7FABC08BD0000F8
:100B400000140040403802400168CA6842F00102C7
:100B5000CA600068016841F001010160002070472F
:100B6000704770B50446006801694FF00005C9433D
:100B7000890715D4C168C943890711D4E91E0161E9
:100B800001202076206880698007204602D0FFF788
:100B9000E7FF04E000F098F8204600F096F825768C
:100BA00020680169C943490717D4C168C943490787
:100BB00013D46FF00401016102202076206880695F
:100BC00010F4407F204602D0FFF7CAFF04E000F097
:100BD0007BF8204600F079F8257620680169C94342
:100BE000090716D4C168C943090712D46FF0080178
:100BF0000161042020762068C0698007204602D069
:100C0000FFF7AEFF04E000F05FF8204600F05DF86B
:100C1000257620680169C943C90617D4C168C9434C
:100C2000C90613D46FF010010161082020762068F6
:100C3000C06910F4407F204602D0FFF791FF04E026
:100C400000F042F8204600F040F82576206801695F
:100C5000C943C90708D1C168C943C90704D1891E5E
:100C60000161204600F032F820680169C943090695
:100C700009D4C168C943090605D46FF08001016138
:100C80002046FFF7FDFE20680169C943490609D4E3
:100C9000C168C943490605D46FF04001016120468F
:100CA00000F015F820680169C94389060BD4C168B2
:100CB000C943890607D46FF0200101612046BDE8D1
:100CC0007040FFF7DEBE70BD7047704770477047D9
:100CD000FEE7000070B586B014216846FFF7A8FA59
:100CE00012480024016841F080010160016801F0B0
:100CF00080010591016841F00801016000680C4E17
:100D000000F008004FF44055059022462946304631
:100D1000FFF7A8FB01200095CDE9010469463046A4
:100D20000394FFF7C3FA06B070BD000030380240EC
:100D3000000C0240FEE770470907090E002806DA9A
:100D400000F00F0000F1E02080F8141D704700F162
:100D5000E02080F80014704770477047FFF78EBBA3
:100D600030B593B030216846FFF762FA14210CA821
:100D7000FFF75EFA19480025016841F080510160D3
:100D8000006800F0805011901548016841F48041DE
:100D900001600068022400F480401190012003905B
:100DA00010200490009406940820CDE90750A82054
:100DB000CDE9090404200B906846FFF7BFFC0CA99D
:100DC0000F2081E831004FF4A0500F90E002109006
:100DD00005210CA8FFF7EAFB13B030BD40380240F4
:100DE000007000401048016841F4700101600F4834
:100DF000016841F0010101600C4A002108321160D4
:100E000002680B4B1A400260031D0A4A1A6002680E
:100E100022F48022026005480C3001600249580625
:100E2000803908607047000088ED00E0003802401B
:100E3000FFFFF6FE1030002410B54FF48051044837
:100E4000FFF70CFBBDE810400248FFF78ABE000028
:100E5000000C024010000020F0B50268234B244D26
:100E6000244E254F254C4FF0804C984209D06045C8
:100E700007D0A84205D0B04203D0B84201D0A0426A
:100E800004D122F0700E4A6842EA0E0298421BD04A
:100E9000604519D0A84217D0B04215D0B84213D03F
:100EA000A04211D0164DA8420ED0164DA8420BD02C
:100EB000154DA84208D0154DA84205D0144DA842A2
:100EC00002D0144DA84203D122F44075CA682A43C7
:100ED00002608A68C2620A688262984201D0A042B7
:100EE00001D10969016301214161F0BD00000140A8
:100EF0000004004000080040000C004000040140D5
:100F000000400140004401400048014000180040FA
:100F1000001C004000200040FEE702E008C8121F4D
:100F200008C1002AFAD170477047002001E001C1D2
:100F3000121F002AFBD170471CB5FFF7A7FAFFF775
:100F40000FFFFFF7C7FE00240C4800940A490194E4
:100F500001604AF20F41C0E901144FF4FA61C16027
:100F6000FFF7B8FD0094694604480194FFF78AFD35
:100F70000248FFF7E9FDFEE70014004010000020E2
:100F80000000000000000000010203040607080939
:100F9000B00F000800000020100000001A0F000829
:100FA000C00F000810000020400400002A0F0008B5
:100FB0000100000010000000000000000024F40008
:040000050800018965
:00000001FF
