:020000040800F2
:10000000300400209D010008C7110008BB10000843
:10001000C5110008A90200085113000800000000E3
:100020000000000000000000000000005B1200085B
:10003000AB02000800000000E91100085D12000892
:10004000B7010008B7010008B7010008B7010008B0
:10005000B7010008B7010008B7010008B7010008A0
:10006000B7010008B7010008B7010008B701000890
:10007000B7010008B7010008B7010008B701000880
:10008000B7010008B7010008B7010008B701000870
:10009000B7010008B7010008B7010008B701000860
:1000A000B7010008B7010008B7010008B701000850
:1000B000B7010008B7010008B7010008B701000840
:1000C000B7010008B7010008B7010008B701000830
:1000D000B7010008B7010008B7010008B701000820
:1000E000B7010008ED110008B7010008B7010008CA
:1000F000B7010008B7010008B7010008B701000800
:10010000B7010008B7010008B7010008B7010008EF
:10011000B7010008B7010008B7010008B7010008DF
:10012000B7010008B7010008B7010008B7010008CF
:10013000B7010008B7010008B7010008B7010008BF
:10014000B7010008B7010008B7010008B7010008AF
:10015000B7010008B7010008B7010008B70100089F
:10016000B7010008B7010008B7010008B70100088F
:10017000B7010008B7010008B7010008000000003F
:10018000B7010008B7010008DFF80CD000F07AF8DA
:1001900000480047711300083004002006488047DB
:1001A00006480047FEE7FEE7FEE7FEE7FEE7FEE75C
:1001B000FEE7FEE7FEE7FEE7FD1200088901000802
:1001C0002DE9F05F0546002092469B46884606468C
:1001D000814640241BE0284641464746224600F01F
:1001E00041F853465A46C01A914110D31146184659
:1001F000224600F028F82D1A67EB01084F462246E8
:100200000120002100F01FF817EB00094E41201ECD
:10021000A4F10104DFDC484631462A464346BDE8E6
:10022000F09FD2B201E000F8012B491EFBD27047CB
:100230000022F6E710B513460A4604461946FFF7B2
:10024000F0FF204610BD202A04DB203A00FA02F11C
:10025000002070479140C2F1200320FA03F31943B4
:1002600090407047202A04DB203A21FA02F0002156
:10027000704721FA02F3D040C2F1200291400843B6
:1002800019467047064C074D06E0E06840F0010350
:1002900094E8070098471034AC42F6D3FFF778FF94
:1002A00094130008B4130008FEE770472DE9F84FD7
:1002B000DFF87CB100224FF001084FF0030A4FF045
:1002C0000F090BF1040E00BF0B6808FA02F423407B
:1002D000A3426ED14D68022D01D0122D0ED1D5084A
:1002E00000EB850CDCF820505607F70E09FA07F6EC
:1002F000B5430E69BE402E43CCF820600668550019
:100300000F790AFA05FC07F0030726EA0C06AF404E
:10031000374307604E68012E05D0022E03D0112E00
:1003200001D0122E0ED18668CF6826EA0C06AF40A7
:10033000374387604668A6430C79C4F300149440A1
:1003400034434460C6688C6826EA0C06AC403443EB
:10035000C4604C68E40065D5364C256845F480459A
:100360002560246822F0030504F480440094324C94
:100370002E19D6F8084895072F0F09FA07F5AC4350
:100380002E4DA84201D1002524E02D4DA84201D1D7
:1003900001251FE02B4DA84201D102251AE02A4D6C
:1003A000A84201D1032515E0284DA84202D1042519
:1003B00010E037E0264DA84201D105250AE0254D81
:1003C000A84201D1062505E0234DA84201D1072509
:1003D00000E00825BD402543C6F80858DBF800407A
:1003E0005D464E689C43F60300D51C432C60DEF846
:1003F000004075464E689C43B60300D51C432C60F4
:100400000B4D08352C684E689C43F60200D51C4302
:100410002C60074D0C352C684E689C43B60200D505
:100420001C432C60521C102AFFF44EAFBDE8F88F1D
:10043000003C0140443802400030014000000240CE
:100440000004024000080240000C0240001002407C
:100450000014024000180240001C02400AB18161F1
:1004600070470904FBE700000148806870470000FE
:1004700000000020024881680278114481607047C2
:10048000000000200B4810B5016841F400710160C4
:10049000016841F480610160016841F4807101608C
:1004A000032000F06DF8002000F006F800F024F8BA
:1004B000002010BD003C024070B50D4D04464FF4C5
:1004C0007A712878B1FBF0F00A490968B1FBF0F0C5
:1004D00000F0DFFD48B9102C07D200222146501E43
:1004E00000F02EF800206C6070BD012070BD00008F
:1004F000000000200C0000200A4808B5016841F403
:1005000080410160006800F4804000900548001FB1
:10051000016841F080510160006800F08050009057
:1005200008BD00004438024000F01F020121914044
:100530004009800000F1E020C0F800117047000081
:10054000F0B40E4B1B680C46C3F30223C3F107053E
:10055000042D00D90425191D072901D2002300E02C
:10056000DB1E012606FA05F1491E214099409E40F6
:10057000761E16403143F0BC00F026BE0CED00E0C4
:10058000064900F0070208684FF6FF03184040EAEA
:100590000220034A10430860704700000CED00E0A1
:1005A0000000FA052DE9F843054600684FF00109FF
:1005B000C1074FF0000601D1400727D5DFF80C81B5
:1005C000C8F86860FFF750FF0746414C05E000BFE0
:1005D000FFF74AFFC01B022857D820680001F7D454
:1005E00068688101287A41EA0070394984310860DD
:1005F000C8F86890FFF738FF074604E0FFF734FFBC
:10060000C01B022841D820680001F7D52878800750
:1006100052D52F484030016841F080510160006898
:100620002C4C00F080500090206840F480702060D6
:10063000FFF71AFF074604E0FFF716FFC01B02286A
:1006400023D82068C005F7D5214C7034206810F4F9
:10065000407020D0A98901F4407181421BD02068EC
:100660001D4920F44070C1F800900E6020602068A1
:10067000C00710D0FFF7F8FE064641F2883707E0C2
:10068000FFF7F2FE801BB84202D90320BDE8F883D1
:1006900020688007F4D5E9680D48C1F301220830CD
:1006A000032A0BD0016821F4F81101602068A989A0
:1006B000C1F30B01084320600020E7E70268074B05
:1006C00022F4F81219400A430260EFE700004742A3
:1006D0000038024000700040400E4742FFFCFF0F10
:1006E0002DE9F0470E46050065D0DFF81481D8F8F3
:1006F0000000F7B200F00F00B04207D288F8007097
:10070000D8F8000000F00F00B04254D128683D4CEA
:10071000810712D5400703D5206840F4E0502060DF
:100720002878000703D5206840F4604020602068E6
:10073000A96820F0F000084320602878C0072DD079
:10074000304968680839012812D0022813D00328DC
:1007500011D00968890700292DDA216821F00301E9
:1007600001432160FFF780FE814641F2883A0EE0A6
:1007700009688903EFE709688901ECE7FFF774FE70
:10078000A0EB0901514502D90320BDE8F08720689C
:10079000696800F00C00B0EB810FEFD1D8F80010C1
:1007A000404601F00F01B14207D90770006800F020
:1007B0000F00B04201D00120E7E72878400705D5B7
:1007C0002068E96820F4E05008432060287800079A
:1007D00006D52068296920F4604040EAC100206005
:1007E00000F016F82168084AC1F30311515CC840B3
:1007F000064908600020FFF75FFE0020C5E7000003
:10080000003C024008380240821300080C0000201F
:10081000154810B5006810F00C02144813D01449A4
:10082000042A0FD0082A0ED10F4C241F22682368F7
:1008300002F03F025B0207D52068C0F38810A0FBDE
:10084000010106E0084610BD2168C1F38811A1FB33
:1008500000010023FFF7B4FC2168C1F30141491CEA
:100860004900B0FBF1F010BD083802400024F4004C
:1008700040787D012DE9F84F050076D02878DFF823
:10088000F8B2BE4CC00749D0DBF800105846C1F39F
:100890008101012908D00068C0F3810002280AD133
:1008A000201D0068400206D52068800336D56868A0
:1008B0000028E2D032E06868B0F5803F10D0B0F593
:1008C000A02F206810D020F480302060206820F411
:1008D000802020606868A0B1FFF7C6FD06460CE0E6
:1008E000206840F48030F4E740F480202060F7E78F
:1008F000FFF7BAFD801B642873D820688003F7D502
:100900000CE0FFF7B1FD064605E000BFFFF7ACFDC8
:10091000801B6428F0D820688003F7D42878DFF89B
:10092000608280074FF000093ED5DBF80010584682
:1009300011F00C0F09D00068C0F3810002280BD120
:100940008D48001F0068400206D42068800715D536
:10095000E868012809D111E0E868B8B10120C8F8B9
:100960000000FFF781FD064605E002E1FFF77CFD90
:10097000801B0228C0D820688007F7D52068296925
:1009800020F0F80040EAC10020600DE0C8F80090B7
:10099000FFF76AFD064604E0FFF766FD801B0228AC
:1009A0001FD820688007F7D42878000722D5724E18
:1009B000744869696C3671B101210160FFF754FD1B
:1009C000074604E0FFF750FDC01B022809D8306835
:1009D0008007F7D50EE0C0F80090FFF745FD074609
:1009E00005E083E0FFF740FDC01B02287ED8306899
:1009F0008007F7D42878400768D5DFF87CA1002766
:100A00000AF1380ADAF80000C0000BD4DAF8001056
:100A100041F08051CAF80010DAF80000012700F018
:100A200080500090584E3068C00510D4306840F4B3
:100A300080703060FFF718FD009005E0FFF714FDAF
:100A40000099401A022851D83068C005F6D54A4EA0
:100A5000A868683601280FD00528306810D020F02B
:100A600001003060306820F004003060A868B8B140
:100A7000FFF7FAFC00900FE0306840F00100F4E767
:100A800040F004003060F7E7FFF7EEFC0099411AF0
:100A900041F28830814264D830688007F4D50EE096
:100AA000FFF7E2FC009007E0FFF7DEFC0099411A37
:100AB00041F28830814254D830688007F4D42FB195
:100AC000DAF8001021F08051CAF80010A869C0B30C
:100AD000DBF80010C1F3810102294AD00228484600
:100AE00007D0C8F86000FFF7BFFC00E039E005461A
:100AF0003AE04746C8F86000FFF7B6FC064604E057
:100B0000FFF7B2FC801B02282BD820688001F7D4A5
:100B1000D5E907010843A96A1C4A490802EB0141CB
:100B20006A6A41EA8211084395F82C1040EA016193
:100B30001148001F016001203866FFF795FC05464B
:100B400005E014E0FFF790FC401B022809D820685C
:100B50008001F7D50BE000BFFFF786FC401B0228A1
:100B600002D90320BDE8F88F20688001F4D400206A
:100B7000F8E70120F6E7000008380240003802409C
:100B800000004742800E4742007000400000FFFF17
:100B90007047000070B504460068C068104EC0057C
:100BA0004FF470450BD5012229463046FFF756FC1D
:100BB0002068C16801F0800161F4C071C1602068E3
:100BC000C06880050BD5002229463046FFF746FC59
:100BD0002068C16801F0800161F4C071C16070BD1E
:100BE000000C024010B504460068C168C9050CD568
:100BF0008068C00409D52046FFF7CCFF2068C16893
:100C000001F0800161F4C071C1602068C16889058C
:100C10000CD58068800409D52046FFF7B9FF20680D
:100C2000C16801F0800161F42071C16003494FF493
:100C3000003008600120607710BD0000143C0140C6
:100C400070B5040002D0607F10B106E0012070BDD5
:100C500000202077204600F049F8022060772168C4
:100C6000CA204862216853204862204600F0D8FA22
:100C7000FF25042618BB206881681B4A114081604B
:100C80002168886862681043D4E904231A4310433A
:100C900088602168E068086120680169228941EA6A
:100CA000024101612068C16821F08001C1602068B3
:100CB0008068800607D4204600F0D0F918B120687B
:100CC00045626677C2E72068016C21F480210164E7
:100CD0002068016CA269114301642068456201200B
:100CE0006077002070BD0000BFFF8FFF10B5006867
:100CF000084988420CD108490120086000221146A9
:100D00002920FFF71DFCBDE810402920FFF70CBC8F
:100D100010BD0000002800403C0E4742F8B50346D5
:100D20005E480C464FF4FA410068B0FBF1F04911FF
:100D300048430090187F012849D001261E770220E1
:100D400058771868002580684FEA4060F2B30028A1
:100D500059DA207800F050FA94F8200000F04CFAAC
:100D6000A0782178E27840EA01406178090241EAFE
:100D70000241084394F8201040EA0160E169A26949
:100D8000084361691F68084361681143CA227A6297
:100D90001F6853227A62626AFF27B2F5807F1A6861
:100DA0004FF0030C946851D024F4007494601A68D6
:100DB000D46804F0800464F42074D4601A68009C41
:100DC000B4F1010ECDF800E061D31EE001E0022095
:100DD000F8BD002800DBE570207800F016FA020468
:100DE000607800F012FA42EA0022A07800F00DFAD2
:100DF0000243E07842EA004294F8200000F005FA4D
:100E000042EA0060BAE7E570A6E7D468A407D6D541
:100E10001062186881641868816841F4007181600B
:100E20001868816841F4005181601D48016841F4EF
:100E3000003101601A480830016841F40031016056
:100E4000186847625E771D770020F8BD24F480742F
:100E500094601A68D46804F0800464F4C074D460A8
:100E60001A68009CB4F1010ECDF800E00FD3D468ED
:100E7000E407F6D0D061186841641868816841F4CD
:100E8000807181601868816841F48051CCE75762B5
:100E900083F81DC01D770320F8BD00000C00002062
:100EA000003C01402DE9F0470446007F0B46012835
:100EB0001FD04FF0010984F81C9002206077DAB14E
:100EC0009878D97840EA014558781978000240EAC4
:100ED000413005432168CA20486221685320486296
:100EE000204600F09DF90026FF274FF0040860BB64
:100EF0001AE00220BDE8F0875878C10603D500F05B
:100F0000EF000A305870D87800F07FF90204587862
:100F100000F07BF942EA0022987800F076F902436B
:100F2000187842EA4035D5E70F480540206845600B
:100F30002068C16821F08001C16020688068800657
:100F40000AD4204600F08AF830B12068476284F85D
:100F50001D8026770120CDE72068476284F81D9028
:100F600026770020C6E700003FFFFF002DE9F0478D
:100F70000446007F0D46012811D04FF0010A84F885
:100F80001CA0022060772068002680684FEA40603D
:100F900042B100281ADA287800F02EF917E0022072
:100FA000BDE8F087002800DBEE70287800F02DF90E
:100FB0000204687800F029F942EA0022A87800F0DB
:100FC00024F90243E87842EA00470AE0EE70A87884
:100FD000297840EA01476878E978000240EA014050
:100FE00007432168CA20486221685320486220468E
:100FF00000F016F94FF0FF084FF00409E0B9164869
:101000000740206807602068816821F480218160A2
:10101000D5E90301084321688A6810438860206885
:10102000C16821F08001C1602068806880060BD40F
:10103000204600F013F838B12168C1F8248084F804
:101040001D9026770120ABE72168C1F8248084F841
:101050001DA026770020A3E77F7F7F0070B50446A0
:101060000068C16821F0A001C160FFF7FDF90546E5
:101070004FF47A7607E000BFFFF7F6F9401BB04265
:1010800001D9032070BD2068C0688006F4D5002017
:1010900070BD10B5401EB0F1807F01D3012010BD9E
:1010A0004FF0E02460610F21601700F08DF8002000
:1010B000A06107202061002010BDFEE770B586B05A
:1010C00014216846FFF7B4F812480024016841F083
:1010D00008010160016801F008010591016841F013
:1010E0000101016000680C4E00F001004FF47045F2
:1010F0000590224629463046FFF7B0F901200095B9
:10110000CDE90104694630460394FFF7CFF806B0F5
:1011100070BD000030380240000C024070B590B045
:1011200014210AA8FFF784F80024282168460F94A8
:10113000FFF77EF822482149C0E900147F21816031
:10114000F921C0E9031444618461FFF779FD0925A1
:101150008DF8285004208DF829008DF82A400D9430
:1011600001220AA916480E94FFF700FF06208DF809
:101170003C0011208DF83D0010268DF83E608DF862
:101180003F4001220FA90E48FFF78CFE8DF800505A
:1011900005208DF80100049430018DF8024001947F
:1011A000039409900594069407948DF82060012219
:1011B00069460348FFF7B2FD10B070BD002800403B
:1011C00010000020FEE770470907090E002806DA24
:1011D00000F00F0000F1E02080F8141D704700F1CE
:1011E000E02080F800147047704700000148FFF7C6
:1011F000F9BC000010000020010901EB810100F0A2
:101200000F0000EB4100C0B27047002102E00A3835
:10121000C0B2491C0A28FAD2090740EA1160704797
:1012200070B504460068C168490614D44FF0FF3118
:10123000C160FFF719F905464FF47A7607E000BF61
:10124000FFF712F9401BB04201D9032070BD20689E
:10125000C0684006F4D5002070BD7047FFF70AB99A
:1012600030B597B030216846FEF7E2FF14210CA894
:10127000FEF7DEFF00251F48119512951395149572
:10128000016841F080510160006800F080501590C5
:101290001948016841F4804101600068102100F4A0
:1012A000804015900A2000900120CDE9030105A996
:1012B000022481E8310008200890A820CDE9090423
:1012C00004200B906846FFF7D5FA0CA90F2081E89F
:1012D00031004FF4A0500F90E002109005210CA8AF
:1012E000FFF7FEF920021490119411A8FFF75AF9A4
:1012F00017B030BD4038024000700040104801680F
:1013000041F4700101600F48016841F00101016082
:101310000C4A00210832116002680B4B1A4002602F
:10132000031D0A4A1A60026822F4802202600548FE
:101330000C3001600249580680390860704700008F
:1013400088ED00E000380240FFFFF6FE1030002478
:10135000FEE702E008C8121F08C1002AFAD1704750
:101360007047002001E001C1121F002AFBD1704725
:10137000FFF788F8FFF774FFFFF7A0FEFFF7CEFE38
:10138000FEE7000000000000000001020304060761
:1013900008090000B413000800000020100000003D
:1013A00052130008C413000810000020200400009D
:1013B000621300080100000010000000000000009F
:0413C0000024F40011
:040000050800018965
:00000001FF
